:020000040800F2
:1000000060060020B1010008B9010008BB0100082A
:10001000BD010008BF010008C10100080000000088
:10002000000000000000000000000000C301000804
:10003000C501000800000000C7010008C901000850
:10004000CB010008CB010008CB010008CB01000860
:10005000CB010008CB010008CB010008CB01000850
:10006000CB010008CB010008CB010008CB01000840
:10007000CB010008CB010008CB010008CB01000830
:10008000CB010008CB010008CB010008CB01000820
:10009000CB010008CB010008CB010008CB01000810
:1000A000CB010008CB010008CB010008CB01000800
:1000B000CB010008CB010008CB010008CB010008F0
:1000C000CB010008CB010008CB010008CB010008E0
:1000D000CB010008CB010008CB010008CB010008D0
:1000E000CB010008CB010008CB010008CB010008C0
:1000F000CB010008CB010008CB010008CB010008B0
:10010000CB010008CB010008CB010008CB0100089F
:10011000CB010008CB010008CB010008CB0100088F
:10012000CB010008CB010008CB010008CB0100087F
:1001300000F002F800F02CF80AA090E8000C8244CD
:100140008344AAF10107DA4501D100F021F8AFF2AA
:10015000090EBAE80F0013F0010F18BFFB1A43F0A5
:1001600001031847880300009803000000230024BF
:1001700000250026103A28BF78C1FBD8520728BFB7
:1001800030C148BF0B6070471FB51FBD10B510BD13
:1001900000F031F81146FFF7F7FF00F033F900F0F7
:1001A0004FF803B4FFF7F2FF03BC00F057F800006C
:1001B0000948804709480047FEE7FEE7FEE7FEE7FB
:1001C000FEE7FEE7FEE7FEE7FEE7FEE70448054937
:1001D000054A064B70470000A503000831010008DE
:1001E0006000002060060020600200206002002005
:1001F000704770477047754600F02CF8AE46050012
:100200006946534620F00700854618B020B5FFF731
:10021000DDFFBDE820404FF000064FF000074FF033
:1002200000084FF0000B21F00701AC46ACE8C00914
:10023000ACE8C009ACE8C009ACE8C0098D4670471D
:1002400010B50446AFF300802046BDE81040FFF72C
:10025000A8BF000000487047000000200149182096
:10026000ABBEFEE726000200704700B5034603E080
:100270004FF47A7000F006F8181EA3F101018BB25A
:10028000F6D100BD00EBC001C9004FF0E022516182
:100290001146096941F00501116100BF4FF0E021ED
:1002A000096901F480310029F8D04FF0E021096993
:1002B00021F001014FF0E0221161704710B500F00C
:1002C00001F810BD0CB50020019000903348006883
:1002D00040F480303149086000BF3048006800F4C5
:1002E000003000900198401C0190009818B90198C6
:1002F000B0F5A06FF1D12948006800F4003010B1CA
:100300000120009001E0002000900098012843D1D6
:100310002348006840F01000214908600846006842
:1003200020F0070008600846006840F002000860FE
:100330001A484068194948600846406848600846BD
:10034000406840F4806048600846406820F47C10B3
:1003500048600846406840F4E81048600846006875
:1003600040F08070086000BF0C48006800F000702A
:100370000028F9D00948406820F003000749486088
:100380000846406840F00200486000BF03484068EB
:1003900000F00C000828F9D10CBD0000001002404C
:1003A0000020024010B51348006840F001001149D8
:1003B000086008464068104908400E4948600846F1
:1003C00000680E4908400B4908600846006820F4A0
:1003D000802008600846406820F4FE0048604FF422
:1003E0001F008860FFF76AFF4FF000600449086053
:1003F00010BD0000001002400000FFF8FFFFF6FEF5
:1004000008ED00E03748806940F004003549886114
:100410003548006820F00C00334908600846006841
:1004200040F0030008600846006820F0C000086043
:100430000846006840F030000860081D006820F0A1
:100440000C00091D08600846006840F003000860C1
:1004500025480C30006840F0010023490C31086049
:100460000846006840F0020008600846006840F452
:100470008070086035E01C480C30006820F00100F6
:1004800019490C3108604FF4FA70FFF7EEFE164878
:100490000C30006840F0010013490C310860084638
:1004A000006820F0020008604FF4FA70FFF7DDFEEC
:1004B0000D480C30006840F002000B490C31086018
:1004C0000846006820F4807008604FF4FA70FFF767
:1004D000CCFE05480C30006840F4807002490C31B5
:1004E0000860C8E70010024000080140FC04000852
:0C04F00000000020600600006C01000805
:0400000508000131BD
:00000001FF
